:100000000C94DF010C94FE010C94FE010C94FE0193
:100010000C94FE010C94FE010C94FE010C94FE0164
:100020000C94FE010C94FE010C94FE010C94FE0154
:100030000C94FE010C94FE010C94FE010C94FE0144
:100040000C94FE010C94FE010C94FE010C94FE0134
:100050000C94FE010C94FE010C94FE010C94FE0124
:100060000C94FE010C94FE010C94FE010C94FE0114
:100070000C94FE010C94FE010C94FE010C94FE0104
:100080000C94FE010C94FE010C94FE010000000093
:100090000000002F00000007000700147F147F14E9
:1000A000242A7F2A12323408162636495522500057
:1000B00005030000001C2241000041221C0014081E
:1000C0003E081408083E08080000503000101010C8
:1000D0001010006060000020100804023E514945E5
:1000E0003E00427F400042615149462141454B312B
:1000F0001814127F1027454545393C4A49493001BB
:10010000710905033649494936064949291E003611
:100110003600000056360000081422410014141462
:1001200014140041221408020151090632495951A0
:100130003E7E1111117E7F494949363E414141229F
:100140007F4141221C7F494949417F090909013EFC
:100150004149497A7F0808087F00417F41002040DB
:10016000413F017F081422417F404040407F020C04
:10017000027F7F0408107F3E4141413E7F0909090B
:10018000063E4151215E7F091929464649494931B8
:1001900001017F01013F40403F001F2040201F3FE1
:1001A0004038403F63140814630708700807615122
:1001B000494543007F414100552A552A5500414198
:1001C0007F0004020102044040404040000102045C
:1001D0000020545454787F484444383844444420E0
:1001E000384444487F3854545418087E0901020C9E
:1001F0005252523E7F0804047800447D4000204063
:10020000443D007F1028440000417F40007C0418DA
:1002100004787C0804047838444444387C1414146A
:1002200008081414187C7C0804040848545454200A
:10023000043F4440203C4040207C1C2040201C3C8B
:100240004030403C44281028440C5050503C4464FA
:10025000544C44007F3E1C08081C3E7F00087C7EF6
:100260007C08103E7E3E103E3E3E3E3E007F3E1CE1
:10027000087F415D55554949495D494141417F1CD0
:100280007F415D5D5D5D5D5D5D5D5D5D417F1C7FB1
:10029000415D5D5D5D5D5951414141417F1C7F4143
:1002A0005D595141414141414141417F1C403C1018
:1002B0001C00042638260467156017636E616E0003
:1002C000696E660000407A10F35A00A0724E180959
:1002D0000010A5D4E80000E87648170000E40B54AD
:1002E000020000CA9A3B000000E1F505000080967C
:1002F0009800000040420F000000A08601000000AE
:10030000102700000000E803000000006400000067
:1003100000000A00000000000100000000002C7630
:10032000D888DC674F0823DFC1DFAE59E1B1B7964B
:10033000E5E3E453C63AE651997696E8E6C28426A8
:10034000EB898C9B62ED407C6FFCEFBC9C9F40F284
:10035000BAA56FA5F490055A2AF75C936B6CF96700
:100360006DC11BFCE0E40D47FEF520E6B500D0EDC5
:10037000902E0300943577050080841E080000202D
:100380004E0A000000C80C333333330F986E1283CB
:100390001141EF8D2114893BE65516CFFEE6DB189F
:1003A000D1844B381BF77C1D901DA4BBE424203264
:1003B00084725E228100C9F124ECA1E53D2711245D
:1003C0001FBECFEFD0E1DEBFCDBF12E0A0E0B1E0B5
:1003D000EAEDFCE400E00BBF02C007900D92A837E5
:1003E000B107D9F714E0A8E7B2E001C01D92A83D1B
:1003F000B107E1F70E94921D0C946B260C9400004B
:1004000060EC73EA82E093E40895FC01208181E0CE
:1004100090E002C0880F991F6A95E2F741155105D7
:1004200019F0282B208308958095822380830895D6
:1004300070E09B01220F331F260F371F220F331F3F
:1004400054E5459FA0011124240F351FFC01308B7A
:100450002787089524E5429FA0011124460F511DCE
:10046000FC01508B47870895EF92FF920F931F93E3
:10047000CF93DF938C01D62FC42FFC018385948505
:100480000197638141E050E00E940502F8018185F7
:1004900092850197628141E050E00E940502F801D7
:1004A00085819681608140E050E00E940502F8015C
:1004B0008185928541E050E0C13011F040E050E08C
:1004C000F80162810E940502A7E0EA2EF12CCD2FEF
:1004D000D0E0AE010E2C02C0559547950A94E2F784
:1004E00041705070F8018385948563810E940502F4
:1004F000F80185859685648141E050E00E940502FF
:10050000F80185859685648140E050E00E940502EF
:100510000894E108F108FFEFEF16FFEFFF06C9F6B8
:10052000F80185819681608141E050E00E940502DA
:10053000F801838594850197638140E050E00E9433
:100540000502F801818592850197628140E050E0C3
:100550000E940502F80183859485638141E050E0A3
:100560000E940502F80181859285628141E050E098
:100570000E940502DF91CF911F910F91FF90EF90A4
:1005800008951F93CF93DF93EC01CB0164E570E0F6
:100590000E944323162F682F6068CE0140E00E941E
:1005A0003402612F6064CE0140E00E943402DF918A
:1005B000CF911F910895EF92FF920F931F93CF93C6
:1005C000DF938C01E62EFC0147855089FAE06F1716
:1005D00071F49A012C5A3F4FCA0164E570E00E9401
:1005E0005723281B390BF801308B27872AC0BA0103
:1005F0000E94C102C0E0D0E06E2D70E060527040F9
:100600007B01EE0CFF1CEE0CFF1CE60EF71EFE013C
:10061000EE0DFF1DE457FF4F6491660FC80141E0E6
:100620000E9434022196C530D10589F7C80160E0E7
:1006300041E00E943402F801878590890696908BEC
:100640008787DF91CF911F910F91FF90EF900895D1
:100650000F931F93CF93DF938C01EB0103C0C8016D
:100660000E94DB0269916623D1F7DF91CF911F9140
:100670000F910895CF93DF93CDB7DEB7C050D1402F
:100680000FB6F894DEBF0FBECDBF9E01275F3E4F71
:10069000CE0101966FEF70E0C95FDE4F488159814E
:1006A000C750D1400E94D525CB5FDE4F888199810C
:1006B000C550D140BE016F5F7F4F0E942803C050DC
:1006C000DF4F0FB6F894DEBF0FBECDBFDF91CF91E5
:1006D0000895EF92FF920F931F93CF93DF938C01B6
:1006E000C4E56C9FE00111247E01E20EF11CC40FF1
:1006F000D11DBE010E94C10206C0C80160E041E0F8
:100700000E9434022196CE15DF05B8F3DF91CF9118
:100710001F910F91FF90EF90089540E024E50E9413
:10072000690308950F931F93CF93DF938C01FC010E
:10073000108A178660E070E00E94C102C8EFD1E025
:10074000C80160E041E00E9434022197C9F7DF91BF
:10075000CF911F910F9108956F927F928F92AF92D8
:10076000BF92CF92EF92FF920F93CF93DF93CDB7CB
:10077000DEB73C01CB01D30118967C936E9317979B
:1007800011964C93119716963C932E9315970C93B4
:100790001A96FC92EE9219971296CC9212971C968A
:1007A000BC92AE921B9713968C9213972E853F8521
:1007B0001E963C932E931D97288914962C93642F94
:1007C00041E050E00E940502F30187819085019786
:1007D000618141E050E00E940502D30115968D91A0
:1007E0009C91169701976C9141E050E00E940502A0
:1007F000F301818592850197628141E050E00E947A
:100800000502D3011B968D919C911C97019713961D
:100810006C9141E050E00E940502F30185859685C8
:100820000197648141E050E00E9405028FE59AEE55
:100830000197F1F700C00000D30117968D919C91AC
:10084000189711966C9140E050E00E9405028FEFDE
:100850009FE1A3E081509040A040E1F700C000007C
:10086000D30117968D919C91189711966C9141E048
:1008700050E00E940502F30185819681608140E08D
:1008800050E00E940502C30161E240E00E94340290
:10089000C30168EC40E00E943402C30166E040E01E
:1008A0000E943402C30163E140E00E943402C301AC
:1008B00060E240E00E943402C3016CE040E00E942C
:1008C0003402C3010E949203C30161E240E00E942E
:1008D0003402C30160EC40E00E943402C30160E2D4
:1008E00040E00E943402DF91CF910F91FF90EF9092
:1008F000CF90BF90AF908F907F906F9008951F938F
:10090000CF93DF93EC01162F2F853889B9010E9410
:10091000C102CE01612F41E00E9434028F85988987
:100920000196988B8F87DF91CF911F910895FC01DD
:100930002785308921503040308B27870895EF92EA
:10094000FF920F931F93CF93DF938C017B01FC01E8
:10095000108A1786C0E0D0E0F701EC0FFD1F64910C
:10096000C8010E947F042196F1E0C83FDF07A1F78C
:10097000DF91CF911F910F91FF90EF900895EF922B
:10098000FF920F931F93CF93DF93EC01142F790104
:10099000942F96959695969584E5989FC00111247D
:1009A000860F911D64E570E00E945723062F682F83
:1009B0006068CE0140E00E943402602F6064CE0186
:1009C00040E00E943402E114F10451F0177061E03C
:1009D00070E002C0660F771F1A95E2F7CE0102C0E1
:1009E000CE0160E041E00E943402DF91CF911F917F
:1009F0000F91FF90EF900895FC01DB0171836083FC
:100A00005383428325833C9181E090E002C0880FAC
:100A1000991F2A95E2F7382B3C930895FC016483D3
:100A2000A281B38135812C9181E090E002C0880FD2
:100A3000991F3A95E2F7662319F0282B2C93089515
:100A4000809582238C93089561E0FC012481621BD0
:100A50000E940E050895CF93DF939C01FB01DC01FA
:100A6000CA0105C0C191D191CD93DD930297823027
:100A70009105C0F7CA018E7FF901E80FF91F860FB3
:100A8000971F40FF03C0DC018C918083DF91CF91E1
:100A90000895DC010097D1F0ED91FC91119730970A
:100AA000A9F08081882391F02681378112968D915B
:100AB0009C9113972817390759F481810E94D819FE
:100AC00080FF02C083E0089580E0089589E00895E2
:100AD00089E008950F93CF93DF93EC019A01AB0166
:100AE000BC016E5C7F4F898101E00E94921A8823CD
:100AF00051F5FE01E05DFD4F808191812AEA853547
:100B0000920719F5FE01E859FF4F80819181A2817A
:100B1000B381B070863421E4920724E5A20720E077
:100B2000B207A9F0CC57DF4F488159816A817B8198
:100B3000707081E0463491E4590794E5690790E0CC
:100B4000790731F404C083E003C082E001C080E093
:100B5000DF91CF910F9108952F923F924F925F9224
:100B60006F927F928F929F92AF92BF92CF92DF92BD
:100B7000EF92FF920F931F93CF93DF93CDB7DEB722
:100B80002E970FB6F894DEBF0FBECDBFDC01042F49
:100B9000ED91FC911197808190E0C0978A3091058A
:100BA00040F421812A3329F432961196FC93EE9376
:100BB00002C080E090E0DB0111961C921E9200972B
:100BC00009F045C2E091CF04F091D004FE87ED8793
:100BD000309709F43EC21196FC93EE9380818823EE
:100BE00059F081810E94D81980FD06C0002309F4C4
:100BF00032C282FD34C22FC2AD85BE851C921196D1
:100C00001C9280E00E94DF1980FD27C2002311F0B2
:100C100082FD25C28D859E8540E050E0BA010E948C
:100C20006A058130F9F4ED85FE85EC50FE4F808138
:100C3000882309F418C22D853E8528503E4FD901DE
:100C40008D919D910D90BC91A02D89839A83AB834A
:100C5000BC838D859E8549815A816B817C810E94F0
:100C60006A0504C019821A821B821C82833009F42F
:100C7000F8C1882309F0F7C1ED85FE8585AD96ADF5
:100C8000F2E080309F0709F0EEC1ED85FE85E85B5C
:100C9000FF4F808191819C0140E050E02D833E8395
:100CA0004F835887211531054105510571F42D8574
:100CB0003E852A5A3F4FD9018D919D910D90BC914F
:100CC000A02D8D839E83AF83B8872D813E814F8178
:100CD0005885AD85BE855A962D933D934D935C9373
:100CE0005D97FD01EE5BFF4F408113964C93139788
:100CF000842F8150823008F0B6C1DF960C91DF97C7
:100D000012960C931297002309F4ADC1202F30E006
:100D1000C901019782239323009709F0A4C1FD0123
:100D2000ED5BFF4F2080318019963C922E921897F0
:100D3000C1018F709070009709F095C1FD01EB5BC8
:100D4000FF4F80809180AA24BB2481149104A104C8
:100D5000B10439F4FD01EE5AFF4F80809180A280EA
:100D6000B380ED85FE85E05CFF4FC080D180C1146B
:100D7000D10409F478C1242F30E040E050E06D81C7
:100D80007E818F8198850E94242369877A878B874B
:100D90009C872601662477246101E4E0D694C794F9
:100DA000EA95E1F7EE24FF24C40CD51CE61CF71CE1
:100DB000C60ED71EE81EF91E8C149D04AE04BF0497
:100DC00008F451C1C501B4016C197D098E099F0950
:100DD000202F30E040E050E00E946A2389019A0110
:100DE000011511052105310509F43DC1063FBFE09C
:100DF0001B07B0E02B07B0E03B0758F0063FEFEFD2
:100E00001E07E0E02E07E0E03E0730F462E0862EA9
:100E100005C08824839402C053E0852E0E5F1F4FC7
:100E20002F4F3F4FAD85BE8556960D931D932D9345
:100E30003C93599789819A81AB81BC81ED85FE8570
:100E4000868F978FA0A3B1A3AC01BD01440D551DA2
:100E5000661D771D42A353A364A375A389819A815C
:100E6000AB81BC818C0D9D1DAE1DBF1D82A793A7BC
:100E7000A4A7B5A7F3E08F16E1F42114310409F01B
:100E8000F2C0ED85FE85E25AFF4F80819181A281FB
:100E9000B381ED85FE8586A397A3A0A7B1A7D9014D
:100EA000C80142E0880F991FAA1FBB1F4A95D1F7BE
:100EB0002BC02114310409F4D6C089859A85AB85ED
:100EC000BC85840F951FA61FB71FED85FE8586A3E1
:100ED00097A3A0A7B1A7D901C801880F991FAA1F7E
:100EE000BB1FF2E08F1681F0800F911FA21FB31F6E
:100EF000B695A79597958795017010702070307002
:100F0000800F911FA21FB31F81509E4FAF4FBF4F45
:100F100029E0B695A795979587952A95D1F72D81C4
:100F20003E814F815885281739074A075B0708F427
:100F30009AC08FEF9FEFDC01ED85FE85868797874E
:100F4000A08BB18B1286138614861586B3E08B16A0
:100F500009F066C01582EE59FF4F0081118120E033
:100F600030E089819A81AB81BC81080F191F2A1F4B
:100F70003B1FAD85BE8552960D931D932D933C93DB
:100F80005597BD016E5C7F4F11968C91A901980118
:100F900001E00E94921A882309F042C0ED85FE8587
:100FA000E05DFD4F80819181BAEA85359B07C1F5EF
:100FB000ED85FE8582A993A9A4A9B5A98235F2E59C
:100FC0009F07F1E6AF07F1E4BF0751F5ED85FE8518
:100FD000EA5EFD4F80819181A281B381823722E751
:100FE000920721E4A20721E6B207D1F4ED85FE8540
:100FF000E25EFD4F80819181A281B381ED85FE8506
:1010000082879387A487B587E65EFD4F80819181B3
:10101000A281B381ED85FE8586879787A08BB18BF2
:10102000AD85BE858C928091D1049091D2040196B9
:101030009093D2048093D10417969C938E93169725
:10104000FD0116A617A610AA11AA148204C08BE0EF
:101050000BC08CE009C080E007C083E005C08AE0D7
:1010600003C081E001C08DE02E960FB6F894DEBF7C
:101070000FBECDBFDF91CF911F910F91FF90EF90E9
:10108000DF90CF90BF90AF909F908F907F906F90A8
:101090005F904F903F902F9008956F927F928F9224
:1010A0009F92AF92BF92CF92DF92EF92FF920F93F7
:1010B000CF93DF93EC018C81882309F449C0CEA43F
:1010C000DFA4E8A8F9A8F2E38F2E912C8C0E9D1EC8
:1010D0008981B401A701960101E00E94DE1A8823EC
:1010E000A9F51C824AA15BA16CA17DA1C416D506FD
:1010F000E606F70668F18A8D9B8DAC8DBD8D840F59
:10110000951FA61FB71FC816D906EA06FB0600F5ED
:101110006B807724AA24BB2412C08A8D9B8DAC8D52
:10112000BD8DC80ED91EEA1EFB1E8981B401A70120
:10113000960101E00E94DE1A0894A11CB11CC301B3
:101140008A199B098230910540F702C081E001C0F5
:1011500080E0DF91CF910F91FF90EF90DF90CF90E3
:10116000BF90AF909F908F907F906F9008950F9356
:10117000CF93DF93EC010E944D08982F882309F04C
:1011800059C08881833009F04BC08D81882309F4D0
:1011900047C01EA61FA618AA19AABE016E5C7F4FE3
:1011A000FB0181E092E001C011920197E9F7FE0195
:1011B000E05DFD4F85E59AEA9183808382E592E5C3
:1011C000A1E6B1E48AAB9BABACABBDABFE01EA5E82
:1011D000FD4F82E792E7A1E4B1E680839183A28389
:1011E000B383FE01E65EFD4F8E859F85A889B98990
:1011F00080839183A283B383FE01E25EFD4F8A85E3
:101200009B85AC85BD8580839183A283B3832A8926
:101210003B894C895D89898101E00E94DE1A1D822B
:10122000898160E040E050E00E94431B91E0882308
:1012300009F490E0892FDF91CF910F910895CF921B
:10124000DF92EF92FF920F93CF93DF93EC016A014D
:101250007B018EA59FA5A8A9B9A9481759076A07B8
:101260007B07A9F0CE010E944D08882391F4BE01AE
:101270006E5C7F4F8981A701960101E00E94921A5E
:10128000882339F4CEA6DFA6E8AAF9AA03C080E035
:1012900001C081E0DF91CF910F91FF90EF90DF903F
:1012A000CF9008950F931F93CF93DF93EC01DB0151
:1012B000CA010297A109B1094E895F89688D798DAC
:1012C000425050406040704084179507A607B7070A
:1012D00098F42A8130E040E050E0BC01CD010E944A
:1012E00024238B019C018AA59BA5ACA5BDA5080F55
:1012F000191F2A1F3B1F03C000E010E09801B8012E
:10130000C901DF91CF911F910F910895BF92CF92A4
:10131000DF92EF92FF920F931F93CF93DF93EC0135
:101320006A017B01423051056105710508F4AFC0C7
:101330008E899F89A88DB98D481759076A077B0741
:1013400008F0A5C08881823009F454C0833009F4C4
:1013500072C0813009F097C08A01169507950C0D6F
:101360001D1DA801452F5527469560E070E08AA114
:101370009BA1ACA1BDA1480F591F6A1F7B1FCE01C5
:101380000E941F09882309F07EC0F801F170EC0F5C
:10139000FD1FB2A80F5F1F4FA801452F5527469587
:1013A00060E070E08AA19BA1ACA1BDA1480F591FCC
:1013B0006A1F7B1FCE010E941F09882309F063C0AA
:1013C0006B2D70E0F801F170EC0FFD1F92A980E029
:1013D000682B792BC0FE07C044E0769567954A9547
:1013E000E1F78B0125C08B0120E030E01F702070F9
:1013F000307051C0452F562F672F77278AA19BA1A8
:10140000ACA1BDA1480F591F6A1F7B1FCE010E94CE
:101410001F098823C1F5D701C601880F991FAA1F8C
:10142000BB1F9170A070B070C80FD91F0AA91BA96B
:1014300020E030E030C007E07695679557954795F6
:101440000A95D1F78AA19BA1ACA1BDA1480F591F54
:101450006A1F7B1FCE010E941F098823A1F4D701B8
:10146000C60112E0880F991FAA1FBB1F1A95D1F75A
:101470009170A070B070C80FD91F0AA91BA92CA920
:101480003DA93F7008C00FEF1FEF980104C001E0B5
:1014900010E020E030E0B801C901DF91CF911F9149
:1014A0000F91FF90EF90DF90CF90BF9008950F9332
:1014B0001F93CF93DF938C01DC0115961C921E9233
:1014C000149716964D915D916D917C9119974130CD
:1014D00051056105710509F469C0CD91DC918E89D2
:1014E0009F89A88DB98D481759076A077B0708F0AF
:1014F0005DC04115510561057105D9F488818330BE
:1015000049F44EA15FA168A579A541155105610572
:10151000710579F4F801128613861486158688857C
:101520009985009709F442C08EA19FA1A8A5B9A5ED
:101530002FC08A81882309F5D8018D919C910E9442
:101540008609AB01BC014F3FBFEF5B07BFEF6B07E5
:10155000BFEF7B0749F1423051056105710530F15C
:10156000D801ED91FC9186899789A08DB18D48179E
:1015700059076A077B0700F319C0F80142875387B0
:1015800064877587CE010E945209DC01CB01F80106
:1015900086879787A08BB18BE296D8015396DC9310
:1015A000CE93529780E003C081E001C082E0DF91DA
:1015B000CF911F910F9108954F925F926F927F92FA
:1015C0008F929F92AF92BF92CF92DF92EF92FF9253
:1015D0000F931F93CF93DF93EC016A017B014801C6
:1015E0005901423051056105710508F4D3C08E8957
:1015F0009F89A88DB98D481759076A077B0708F09E
:10160000C9C08881823009F469C0833009F489C077
:10161000813009F0BBC08A0116950795040F151F8C
:10162000A801452F5527469560E070E08AA19BA14F
:10163000ACA1BDA1480F591F6A1F7B1FCE010E949C
:101640001F09882309F0A3C0F801F170EC0FFD1FFA
:1016500091E0492E512C612C712C4C205D206E2084
:101660007F20C0FE07C092A99F70882D8295807F41
:10167000892B01C0882D82AB0F5F1F4F81E08C83C7
:10168000A801452F5527469560E070E08AA19BA1EF
:10169000ACA1BDA1480F591F6A1F7B1FCE010E943C
:1016A0001F09882309F073C0F801F170EC0FFD1FCA
:1016B000411451046104710451F0B501A40104E026
:1016C00076956795579547950A95D1F705C042A934
:1016D000407F992D9F70492B42AB59C0452F562F03
:1016E000672F77278AA19BA1ACA1BDA1480F591FE5
:1016F0006A1F7B1FCE010E941F09882309F047C083
:10170000B701A601440F551F661F771F5170607007
:1017100070704E5C5F4F4C0F5D1FFA0191828082AA
:1017200036C0A7E07695679557954795AA95D1F766
:101730008AA19BA1ACA1BDA1480F591F6A1F7B1FA5
:10174000CE010E941F09882311F5B701A601F2E01E
:10175000440F551F661F771FFA95D1F751706070BF
:101760007070FA01F296EC0FFD1F40815181628189
:101770007381407050706070707F482959296A29C0
:101780007B29408351836283738301C082E091E0AF
:101790009C8301C082E0DF91CF911F910F91FF9058
:1017A000EF90DF90CF90BF90AF909F908F907F9001
:1017B0006F905F904F9008954F925F926F927F92DB
:1017C0008F929F92AF92BF92CF92DF92EF92FF9251
:1017D0000F931F93CF93DF93EC012A013B01411537
:1017E00051056105710599F48A849B84AC84BD849C
:1017F00081149104A104B10409F18E899F89A88DF7
:10180000B98D88169906AA06BB06C0F41CC00E94B2
:1018100086098B019C01623071058105910508F4F0
:1018200093C08E899F89A88DB98D081719072A073B
:101830003B0708F48DC05301420105C051E0852EDD
:10184000912CA12CB12C750164010894C11CD11CF0
:10185000E11CF11C8E899F89A88DB98DC816D90607
:10186000EA06FB0660F022E082169104A104B104AE
:1018700008F463C042E0C42ED12CE12CF12CCE013F
:10188000B701A6010E9486098B019C0161157105B3
:1018900081059105A9F00F3F8FEF18078FEF2807FB
:1018A0008FEF380709F454C00130110521053105C7
:1018B00009F44EC0C814D904EA04FB0431F63DC053
:1018C0008C2CBD2CAE2C9F2CCE01A601B7010FEFA6
:1018D0001FEF2FEF3FE00E94DC0A882341F54114FF
:1018E00051046104710449F0CE01B301A2018601E3
:1018F00097010E94DC0A8823D1F48A86BB86AC86D5
:101900009D868E859F85A889B9898F3F2FEF920785
:101910002FEFA2072FEFB207A1F00197A109B1099C
:101920008E879F87A88BB98B81E08D830AC0813019
:1019300059F40FEF1FEF98010BC000E010E0980181
:1019400007C09701860104C001E010E020E030E00C
:10195000B801C901DF91CF911F910F91FF90EF90D6
:10196000DF90CF90BF90AF909F908F907F906F90BF
:101970005F904F9008958F929F92AF92BF92CF92B7
:10198000DF92EF92FF920F931F93CF93DF938C011F
:10199000EB01DC011496AD90BC9015970894A11C46
:1019A000B11CA114B10409F4FCC01E968D919D9147
:1019B0000D90BC91A02D0097A105B10509F4F1C0CF
:1019C0002FE0822E912C8A209B208114910409F013
:1019D000D2C00196A11DB11DF80186879787A08B03
:1019E000B18B42855385648575850190F081E02D2A
:1019F000411551056105710539F480859185A81659
:101A0000B90608F0CEC0B7C0828190E00197950179
:101A1000A4E036952795AA95E1F7822393230097B2
:101A200009F0A9C0CF010E9486096B017C016230D8
:101A300071058105910508F4B8C06F3F2FEF72075B
:101A40002FEF82072FEF920709F4B1C0D801ED9173
:101A5000FC9186899789A08DB18DC816D906EA06B2
:101A6000FB0608F476C0209709F49BC0D8011A96AB
:101A70004D915D916D917C911D97CF010E94DC0B82
:101A80006B017C01611571058105910509F48BC01D
:101A9000613071058105910509F487C06F3FEFEF53
:101AA0007E07EFEF8E07EFEF9E0709F480C0D801A5
:101AB0008D919C910E944D08882309F078C0D8012F
:101AC000ED91FC911197F29680E092E001C01192A5
:101AD0000197BFEF8F3F9B07D1F7F801C081D181FC
:101AE000CE01B701A6010E945209DC01CB018EA7ED
:101AF0009FA7A8ABB9ABC0E0D1E018C0D483D80190
:101B00008D919C910E944D08882309F050C0D80106
:101B1000ED91FC9186A597A5A0A9B1A90196A11D5B
:101B2000B11D86A797A7A0ABB1ABCF5FD801ED9150
:101B3000FC9111978281C81708F386A597A5A0A9E3
:101B4000B1A98C1B9109A109B10986A797A7A0ABE0
:101B5000B1ABF801C286D386E486F5868081918197
:101B6000B701A6010E945209DC01CB01F80186876A
:101B70009787A08BB18BD8011596BC92AE92149723
:101B80008D919C911197C29665E0880C991C6A957D
:101B9000E1F7880D991D53969C938E93529780E0A0
:101BA00007C084E005C087E003C082E001C081E097
:101BB000DF91CF911F910F91FF90EF90DF90CF9029
:101BC000BF90AF909F908F900895CF93DF93EC01DB
:101BD00084E01BC0888199810E941F09882301F538
:101BE000EA89FB899081992311F12385953E31F093
:101BF0009E3221F0922F9F739830B1F0CE0160E0B9
:101C000070E00E94BB0C882359F44E855F8568897B
:101C100079894115510561057105E1F6882321F0A7
:101C20001E861F86188A198ADF91CF91089584E055
:101C3000F7CFCF93DF93EC014E855F856889798973
:101C4000888199810E941F09882371F4EA89FB89A0
:101C50009081953E49F0992339F0CE0161E070E022
:101C60000E94BB0C882341F3DF91CF910895882314
:101C700091F4E091CF04F091D004309709F01082F4
:101C80006115710511F0FB0110827093D00460930F
:101C9000CF0480E008958BE008952F923F924F92F9
:101CA0005F926F927F928F929F92AF92BF92CF92EC
:101CB000DF92EF92FF920F931F93CF93DF93CDB7F5
:101CC000DEB7AE970FB6F894DEBF0FBECDBF98A7B4
:101CD0008FA37CA36BA3009709F488C2DC011D923B
:101CE0001C92B42FBF71B9A74E71CE018396BE016D
:101CF000635F7F4F0E94AC058AA7882309F078C2F2
:101D0000CE0101969AA389A3EBA1FCA180818F3219
:101D100011F08C3509F431961B8A1C8A1D8A1E8AA3
:101D20008081803240F4CE010D960E94570A182F10
:101D300018A21F8EE7C0A0E2FA2EB5E0EB2E4F01ED
:101D4000808131968F32D9F38C35C9F309A11AA15C
:101D5000F8018CE090E001C0F1920197E9F7A4014D
:101D600060E070E044245524A8E0B0E030E0FA01DF
:101D70002191AF010894411C511C2132F0F12F3206
:101D8000F1F12C35E1F12E3219F06A177B0770F072
:101D9000A830B10509F0B1C02E3209F0AEC0330F42
:101DA000330F68E070E0ABE0B0E0E1CF27FF06C0A2
:101DB0003360E22FF0E0E75CFE4F2081C22EDD248D
:101DC000EAE9F1E08191882329F090E08C159D05E6
:101DD000C9F793C0822F81548A3110F4326006C053
:101DE000822F81568A3110F431602052F801E60FBB
:101DF000F71F20836F5F7F4FBACF44E001C040E000
:101E00006115710509F479C0F8018081853E09F4F6
:101E1000E082A830B10511F4330F330F832F90E027
:101E20009C01237030702130310509F440618C70C1
:101E300090708430910509F44860D8011B964C934A
:101E4000CE010D960E94570A882311F54B8D5C8DAB
:101E50006D8D7E8D8D859E850E941F098823C1F41E
:101E6000EF8DF8A19081992391F0938593FDDAC1CC
:101E7000A9A1BAA12BE030E0215030409FEF2F3FC5
:101E8000390731F041919D914917B1F3CBC184E0FD
:101E9000E9A1FAA19385882331F0182F143091F528
:101EA00092FF2DC02FC092FD2CC0AF8DB8A11B9604
:101EB0008C911B9784FF23C05A968D919C915B97C0
:101EC000AC0160E070E0ED85FE858081833069F4CF
:101ED00054968D919C915597A0E0B0E0DC01992734
:101EE0008827482B592B6A2B7B2BF401E40DF51D19
:101EF0004B8B5C8B6D8B7E8B22CF16E003C015E085
:101F000001C0182FAF8DB8A1BEA3ADA3112319F442
:101F1000109709F416E0B9A52B2F30E0C9018C7198
:101F20009070009709F4EDC01123D1F1143069F5D8
:101F3000CE010D960E94570A182F882331F5CE0145
:101F40000D960E94190E182F8823F9F44B8D5C8D85
:101F50006D8D7E8D8D859E850E941F09182F88238B
:101F6000A1F4EF8DF8A181E290E001C011920197F8
:101F7000E9F769A17AA18F8D98A14BE050E00E940A
:101F80002B05ED85FE8581E08483EF8DF8A1FEA30E
:101F9000EDA3112309F0EBC0F9A5F860F9A70AC079
:101FA000ADA1BEA11B968C911B97817109F05CC1FC
:101FB00022FD3FC1B9A5B3FFB1C00E940002DC0100
:101FC000CB01EDA1FEA186879787A08BB18B1386ED
:101FD000DF01148E158E168E178E2D843E84428C52
:101FE000538C66247724F1018081833069F4549600
:101FF0008D919C915597A0E0B0E0DC01992788274E
:10200000482A592A6A2A7B2AADA1BEA15B961C9256
:102010001E925A9755961C921E92549781E0F10198
:102020008483411451046104710409F477C086A5C6
:1020300097A5A0A9B1A98BA79CA7ADA7BEA7B2E001
:102040004B1651046104710408F457C086899789BE
:10205000A08DB18D481659066A067B0608F04DC062
:10206000730162013EC0C101B701A6010E94860949
:102070004B015C01611571058105910509F4DBC017
:102080006130710581059105C1F16F3F2FEF720736
:102090002FEF82072FEF920791F1C101B701A6013F
:1020A00000E010E098010E94DC0A882309F05EC07D
:1020B000F10186859785A089B1898F3FFFEF9F0742
:1020C000FFEFAF07FFEFBF0751F00196A11DB11D54
:1020D000F10186879787A08BB18B21E0258375015D
:1020E0006401F10186899789A08DB18DC816D90642
:1020F000EA06FB0608F4B7CF9EC012E038C011E034
:1021000036C01123A1F5ADA1BEA11B968C911B97E2
:1021100084FDA8C021FF02C080FDA6C0B9A5B3FF01
:1021200002C0B062B9A7ED85FE8546A557A560A996
:1021300071A9AFA1B8A55A964D935D936D937C9309
:102140005D978DA19EA15F969C938E935E9799A5B6
:1021500014969C93ADA1BEA15A964D915C915B974C
:1021600060E070E08081833099F403C0182F1AA7D3
:102170003FC0ADA1BEA154968D919C915597A0E012
:10218000B0E0DC0199278827482B592B6A2B7B2B41
:10219000AFA1B8A51E964D935D936D937C93519717
:1021A000ADA1BEA15C964D915D916D917C915F97C3
:1021B000AFA1B8A51A964D935D936D937C931D972F
:1021C00016961D921D921D921C92199756961D925D
:1021D0001D921D921C9259971196FC93EE93868145
:1021E000978113969C938E93129702C0B9E0BAA779
:1021F0008AA5AE960FB6F894DEBF0FBECDBFDF91B5
:10220000CF911F910F91FF90EF90DF90CF90BF90F3
:10221000AF909F908F907F906F905F904F903F9086
:102220002F900895CE010D9660E070E00E94BB0CE7
:102230000BCE18E09CCF8D859E85089441085108EF
:1022400061087108FC0142865386648675864BA539
:102250005CA56DA57EA50E941F09182F882309F48F
:102260005DCF85CF14E083CF17E081CF2F923F92CF
:102270004F925F927F928F929F92AF92BF92CF9236
:10228000DF92EF92FF920F931F93CF93DF9300D0D3
:1022900000D0CDB7DEB79C838B83E62E072F2A01B3
:1022A0003A832983D9011D921C920E944905782EF8
:1022B000882309F053C1EB81FC81848187FD8DC0A7
:1022C00080FF4AC1428553856485758586819781E3
:1022D000A085B185481B590B6A0B7B0BC201A0E09E
:1022E000B0E0481759076A077B0708F42A012E2C2B
:1022F000302E2DC1AB81BC8116960D911D912D9173
:102300003C911997D901C8019170A070B0700097E5
:10231000A105B10509F0C3C0EB81FC8180819181E9
:10232000B901A801A9E07695679557954795AA95B3
:10233000D1F7DC011296CC901297CA94C422A1F571
:10234000011511052105310529F486859785A08998
:10235000B1890AC0EB81FC814289538964897589FE
:102360000E948609DC01CB0182309105A105B105EF
:1023700050F4AB81BC8114968C91149780681496AC
:102380008C9314972AC08F3FEFEF9E07EFEFAE07B5
:10239000EFEFBE0719F4AB81BC814BC0EB81FC8130
:1023A000828B938BA48BB58BAB81BC810D911C91DF
:1023B000119752964D915D916D917C915597C80101
:1023C0000E945209DC01CB010097A105B10541F43F
:1023D000EB81FC8184818068848342E0742EBEC0DE
:1023E0004C015D018C0C911CA11CB11C7201EF2CE5
:1023F000FF24E694E114F10409F44BC0D8011296CD
:102400008C911297DD2497012C0D3D1D90E08217D1
:10241000930718F47C01EC18FD08F8018181B101E3
:10242000A50194010E2D0E94921AAB81BC818823D4
:1024300041F014968C911497806814968C9314979D
:1024400047C0ED91FC91119784818823E9F046A55E
:1024500057A560A971A9481959096A097B09C701DB
:10246000A0E0B0E0481759076A077B0768F4CA0183
:10247000982F8827990FBF016E5C7F4F820D931DA7
:1024800040E052E00E942B058701102F0027110F1A
:102490003FC0EB81FC81868A978AA08EB18EAB818A
:1024A000BC811696CD90DD90ED90FC9019975696D4
:1024B0004D915D916D917C9159978D919C910E9468
:1024C0001F09882341F0EB81FC818481806884832B
:1024D0007724739443C0C601917020E032E0281B3A
:1024E000390B82012415350508F48901EB81FC8143
:1024F00086819781A085B1859170A070B070C296D9
:1025000060817181680F791FC101A8010E942B05AC
:10251000200E311EA80160E070E0EB81FC81868115
:102520009781A085B185840F951FA61FB71F86834D
:102530009783A087B187A981BA818D919C911197CA
:10254000800F911F11969C938E93401A510A41144B
:10255000510409F0CFCE02C017E0712E872D0F90E5
:102560000F900F900F90DF91CF911F910F91FF90DF
:10257000EF90DF90CF90BF90AF909F908F907F9023
:102580005F904F903F902F9008952F923F924F92DF
:102590005F926F927F928F929F92AF92BF92CF92F3
:1025A000DF92EF92FF920F931F93CF93DF9300D0B0
:1025B00000D0CDB7DEB79C838B83E62E072F2A0190
:1025C0003A832983D9011D921C920E944905782ED5
:1025D000882309F0ACC1EB81FC81848187FDA2C115
:1025E00081FFA3C14285538564857585C201A0E042
:1025F000B0E0840F951FA61FB71F84179507A60785
:10260000B70710F4442455242E2C302E66246394EE
:1026100068C1AB81BC8116964D915D916D917C91A5
:102620001997DB01CA019170A070B0700097A105E5
:10263000B10509F0F7C0EB81FC8120813181DB011C
:10264000CA0119E0B695A795979587951A95D1F780
:10265000F901C280CA94C82209F043C0411551054E
:1026600061057105C9F4EB81FC8186859785A08998
:10267000B1890097A105B10509F5C90140E050E015
:10268000BA010E94DC0BDC01CB01EB81FC81868767
:102690009787A08BB18B0DC0AB81BC8152964D91B9
:1026A0005D916D917C915597C9010E94DC0BDC0115
:1026B000CB010097A105B10509F417C1813091053F
:1026C000A105B10561F18F3FFFEF9F07FFEFAF0756
:1026D000FFEFBF0709F1EB81FC81828B938BA48B09
:1026E000B58BAB81BC818D919C911197FC0146A566
:1026F00057A560A971A956960D911D912D913C91F8
:102700005997401751076207730709F028C10E94C3
:102710004D08882309F423C1AB81BC816FC0EB81D4
:10272000FC81848180688483FDC04C015D018C0C38
:10273000911CA11CB11C7201EF2CFF24E694E11442
:10274000F10409F445C0D80112968C911297DD244A
:1027500097012C0D3D1D90E08217930718F47C0122
:10276000EC18FD08F8018181B101A50194010E2D3D
:102770000E94DE1AAB81BC81882309F03FC0ED9135
:10278000FC9146A557A560A971A9481959096A097C
:102790007B09C701A0E0B0E0481759076A077B072B
:1027A00090F4BA01762F6627770F620D731DCF0163
:1027B000C29640E052E00E942B05AB81BC81ED91B6
:1027C000FC91119714828701102F0027110F6AC006
:1027D000EB81FC8186819781A085B18542855385F7
:1027E0006485758584179507A607B707A8F0C80103
:1027F0000E944D08AB81BC81882341F014968C91D6
:102800001497806814968C93149725C0ED91FC91D1
:1028100086A697A6A0AAB1AAEB81FC81868A978A90
:10282000A08EB18EAB81BC811696CD90DD90ED90DF
:10283000FC90199756964D915D916D917C915997A9
:102840008D919C910E941F09882341F0EB81FC81AE
:102850008481806884837724739469C0C6019170F1
:1028600020E032E0281B390B82012415350508F4DD
:102870008901EB81FC8186819781A085B18591706A
:10288000A070B0709C012E5C3F4F80819181820FBF
:10289000931FB101A8010E942B05AB81BC81ED9172
:1028A000FC916482200E311EA80160E070E0EB8193
:1028B000FC8186819781A085B185840F951FA61F15
:1028C000B71F86839783A087B187A981BA818D912D
:1028D0009C911197800F911F11969C938E93401A93
:1028E000510A4114510409F094CEEB81FC81868198
:1028F0009781A085B1854285538564857585481784
:1029000059076A077B0720F482879387A487B587D6
:10291000AB81BC8114968C911497806214968C9331
:10292000149705C012E0712E02C0B7E07B2E872DF0
:102930000F900F900F900F90DF91CF911F910F91FB
:10294000FF90EF90DF90CF90BF90AF909F908F90CF
:102950007F906F905F904F903F902F900895EB8104
:10296000FC81008111814289538964897589C8017C
:102970000E945209DC01CB010097A105B10509F0C5
:10298000D4CECDCE0F931F93CF93DF93EC010E9453
:1029900049058823C9F59C8195FF36C04A8D5B8D1A
:1029A0006C8D7D8D888199810E941F09882361F536
:1029B0000E8D1F8DF8018385806283878A859B85B4
:1029C000AC85BD85848F958FA68FB78F8E859F85AB
:1029D000A889B989938F828FB58BA48B0E9400023E
:1029E000DC01CB01F801868B978BA08FB18F138A06
:1029F000128A8C818F7D8C83E881F98181E08483C8
:102A0000888199810E94B708DF91CF911F910F9122
:102A10000895CF93DF93EC010E94C214882311F430
:102A200019821882DF91CF9108952F923F924F9291
:102A30005F927F928F929F92AF92BF92CF92DF92DE
:102A4000EF92FF920F931F93CF93DF9300D000D0AC
:102A500000D0CDB7DEB79E838D836A017B010E94D3
:102A60004905782E882309F08CC1AD81BE8114966A
:102A70002C91149727FD83C11A968D919D910D90ED
:102A8000BC91A02D8C159D05AE05BF0520F421FD40
:102A900002C06C017D01ED81FE8186819781A08558
:102AA000B1851682178210861186C114D104E10403
:102AB000F10409F431C100811181F8018280992467
:102AC000AA24BB2439E0880C991CAA1CBB1C3A958B
:102AD000D1F70097A105B105F1F11C012D01089472
:102AE0002108310841085108C701B6016150704002
:102AF00080409040A50194010E946A2329833A8373
:102B00004B835C83C201B101A50194010E946A2339
:102B100089819A81AB81BC8182179307A407B5078D
:102B2000D0F088279927DC0188199909AA09BB09DF
:102B300082219321A421B521ED81FE818683978393
:102B4000A087B187C81AD90AEA0AFB0A42895389C1
:102B50006489758936C0AD81BE811E964D915D91A7
:102B60006D917C915197411551056105710509F5EC
:102B7000C80140E050E0BA010E94DC0BAB01BC018F
:102B8000413051056105710519F4ED81FE815FC089
:102B90004F3FFFEF5F07FFEF6F07FFEF7F0719F46E
:102BA000AD81BE8136C0ED81FE8146875787608B3F
:102BB000718BAD81BE8152964D935D936D937C93E5
:102BC0005597411551056105710509F4A5C00D81A1
:102BD0001E815BC0F80124818081918121FF0AC0A0
:102BE0000E94DC0BAB01BC0141155105610571056B
:102BF00029F454C00E948609AB01BC014F3FFFEF8E
:102C00005F07FFEF6F07FFEF7F0769F41E830D83F8
:102C1000D80114968C911497806814968C9314970D
:102C200077247394AEC0423051056105710560F0A0
:102C3000D801ED91FC9186899789A08DB18D4817B7
:102C400059076A077B0738F01E830D83F8018481DA
:102C50008068848394C0D80152964D935D936D93A0
:102C60007C93559716968D919D910D90BC91A02DBA
:102C7000880D991DAA1DBB1DF80186839783A08727
:102C8000B187C818D908EA08FB088C149D04AE0463
:102C9000BF0408F49FCF1E830D8304C01E830D83E1
:102CA00075016401ED81FE8186819781A085B185E2
:102CB0008C0D9D1DAE1DBF1D86839783A087B18798
:102CC000D701C6019170A070B0700097A105B10541
:102CD00019F1808191810E945209AB01BC0141151B
:102CE00051056105710551F4AD81BE8114968C9139
:102CF0001497806814968C93149741C0D701C6012D
:102D000029E0B695A795979587952A95D1F7840FD1
:102D1000951FA61FB71F03C080E090E0DC01ED8186
:102D2000FE810681178120853185B901A801517086
:102D300060707070411551056105710569F0468933
:102D40005789608D718D84179507A607B70721F005
:102D5000868B978BA08FB18FED81FE8182859385C5
:102D6000A485B58580179107A207B30750F40287A1
:102D700013872487358784818062848302C002E0C0
:102D8000702E872D26960FB6F894DEBF0FBECDBFEE
:102D9000DF91CF911F910F91FF90EF90DF90CF9037
:102DA000BF90AF909F908F907F905F904F903F909B
:102DB0002F900895CF92DF92FF920F931F93CF939E
:102DC000DF93CDB7DEB768970FB6F894DEBF0FBEBE
:102DD000CDBF988F8F8B8B016A01CE014796BE01C4
:102DE0006F5F7F4F40E00E94AC05F82E882309F00A
:102DF00051C00115110541F11F82188619861A86E6
:102E0000CE0101960E94570A882309F042C0CE01E4
:102E100001960E94E50D882399F46B897C89C8018D
:102E20004BE050E00E942B05F8013B968BE090E0D0
:102E30001082009749F0019722912032C9F304C013
:102E4000843039F5F8011082C114D10419F1898157
:102E50009A81FC01468D578D60A171A10E941F09C6
:102E6000F82E8823B9F4E981FA818081833019F43E
:102E700083E490E002C087E290E0E80FF91F82A9A6
:102E800093A9A4A9B5A9F60180839183A283B383F2
:102E900001C0F82E8F2D68960FB6F894DEBF0FBED6
:102EA000CDBFDF91CF911F910F91FF90DF90CF9019
:102EB00008950F931F93CF93DF93CDB7DEB7A397FA
:102EC0000FB6F894DEBF0FBECDBF9BA38AA3CE0181
:102ED0008296BE01645F7F4F41E00E94AC05082FDF
:102EE000882309F0BAC019828AA19BA18C01FC0138
:102EF00060E070E002C06F5F7F4F21912223D9F71D
:102F0000FC01E60FF71F6115710509F443C08291BA
:102F1000803209F0AEC061507040F5CFF8012191C8
:102F20008F0130E0C901815690408A31910518F433
:102F3000205230400CC02038310528F0275C3E4F2D
:102F4000F901208130E02115310509F483C0E9EA57
:102F5000F1E08191882329F090E082179307C9F767
:102F600079C04B30510509F475C02D934F5F5F4F09
:102F70004617570798F20AC0E1E0F0E0EC0FFD1F9A
:102F8000E40FF51F80834F5F5F4F01C080E24B303D
:102F9000510590F31A8A1B8A1C8A1D8ACE010C9651
:102FA0000E94570A082F882309F057C0CE010C96BB
:102FB0000E94E50D882389F429818E8D9F8D22231F
:102FC00041F0BE016F5F7F4F4BE050E00E942B0548
:102FD0002FC025EEFC01208335C08430E9F58981BE
:102FE0008823D9F1CE010C960E94570A082F882316
:102FF000A1F5CE010C960E94190E082F882369F5C1
:10300000EE8DFF8D80E290E001C0119201972FEFCD
:103010008F3F9207D1F78E8D9F8DBE016F5F7F4FDF
:103020004BE050E00E942B05EE8DFF8D88E08387FA
:103030000E940002DC01CB01EE8DFF8D868B978B09
:10304000A08FB18F8C859D8521E0FC0124830E9497
:10305000B70802C006E001C0082F802FA3960FB664
:10306000F894DEBF0FBECDBFDF91CF911F910F91BE
:103070000895DE01119640E050E050CF26B301974D
:10308000E9F70895FC01819187FF02C0C29A01C04F
:10309000C298C19AC19886FF02C0C29A01C0C29864
:1030A000C19AC19885FF02C0C29A01C0C298C19A54
:1030B000C19884FF02C0C29A01C0C298C19AC19847
:1030C00083FF02C0C29A01C0C298C19AC19882FF10
:1030D00002C0C29A01C0C298C19AC19881FF02C0C1
:1030E000C29A01C0C298C19AC19880FF02C0C29A18
:1030F00001C0C298C19AC1986150704021F60895EC
:10310000FC01C29A96B3C19AC19881E093FF80E016
:10311000880FB3998F5FC19AC198880FB3998F5F59
:10312000C19AC198880FB3998F5FC19AC198880FCF
:10313000B3998F5FC19AC198880FB3998F5FC19A75
:10314000C198880FB3998F5FC19AC198880FB399BE
:103150008F5FC19AC19881936150704099F608952C
:103160000F931F93CF93DF930F92CDB7DEB708E88D
:1031700013E1CE01019661E070E00E948018898120
:103180008F3F51F084E690E00E943E1801501040BD
:1031900081F780E090E002C081E090E00F90DF9145
:1031A000CF911F910F910895CF93DF930F92CDB7D9
:1031B000DEB7C09ACE01019661E070E00E948018EF
:1031C0000F90DF91CF910895CF93DF930F92CDB7FA
:1031D000DEB7C098CE01019661E070E00E948018D1
:1031E0000E94B018009729F40E94D41880E090E063
:1031F00002C081E090E00F90DF91CF910895CF92CF
:10320000DF92EF92FF920F931F93CF93DF9300D043
:10321000CDB7DEB77C016B0108EE13E0CE0101965D
:1032200061E070E00E94801889818F3F39F484E664
:1032300090E00E943E180150104081F789818E3F36
:1032400069F4C701B6010E948018CE01019662E0C0
:1032500070E00E94801881E090E002C080E090E081
:103260000F900F90DF91CF911F910F91FF90EF90F2
:10327000DF90CF900895DF92EF92FF920F931F930C
:10328000CF93DF93CDB7DEB727970FB6F894DEBFA5
:103290000FBECDBF182F042FF52EE62ED72E87FF99
:1032A00009C087E340E050E0BA010E943B19823038
:1032B000A0F51F770E94D4180E94E418009761F1CE
:1032C000812F80648A83DB82EC82FD820E8311234E
:1032D00021F0183021F081E003C085E901C087E8C2
:1032E0008F83CE01029666E070E00E9442181C3087
:1032F00031F4CE01019661E070E00E9480181AE07E
:10330000CE01019661E070E00E948018898187FFFC
:1033100004C01150A9F701C08FEF27960FB6F8949B
:10332000DEBF0FBECDBFDF91CF911F910F91FF90F8
:10333000EF90DF900895FF920F931F93CF93DF9349
:1033400000D0CDB7DEB78C01F62E0E94B0180097E2
:1033500029F1F982CE01019661E070E00E944218E5
:103360008DEFF816C1F0C80160E072E00E944218CB
:10337000CE01019662E070E00E948018CE010196B5
:1033800061E070E00E94801829812F7181E090E057
:10339000253021F405C081E090E002C080E090E09B
:1033A0000F900F90DF91CF911F910F91FF90089593
:1033B000882319F480913902089581E00895FF92DD
:1033C0000F931F93CF93DF9300D000D00F92CDB710
:1033D000DEB7882309F098C080E197E20E943E188A
:1033E000B89AC09AB99AC198BA9A0AE0CE010196E1
:1033F00061E070E00E9480180150C1F780E040E079
:1034000050E0BA010E943B19813009F089C088E080
:103410004AEA51E060E070E00E943B198130A9F572
:10342000CE01019664E070E00E9480188B818130AB
:1034300009F076C08C818A3A09F072C008EE13E078
:1034400089EA40E050E060E070E40E943B19882384
:1034500041F088EE93E00E943E180150104081F741
:103460005FC08AE340E050E0BA010E943B19882324
:1034700009F056C0CE01019664E070E00E94801809
:10348000898186FF34C02CE033C089EA40E050E0F7
:10349000BA010E943B19823020F489EAF82E22E01A
:1034A00003C0FF24F39421E008EE13E08F2D40E0E9
:1034B00050E0BA012D830E943B192D81882359F0D9
:1034C00088EE93E00E943E18015010402D810115B6
:1034D000110561F725C080E140E052E060E070E056
:1034E0002D830E943B192D81882311F019C024E0FF
:1034F0002093D30481E0211180E0809339028D83F1
:103500000E94D4188D8101C083E00F900F900F901E
:103510000F900F90DF91CF911F910F91FF90089521
:1035200020E0E6CF0F93CF93DF93EB01BA01A9011F
:10353000882319F48091390201C081E080FD39C0EF
:103540008091D30483FD07C099E0440F551F661F87
:10355000771F9A95D1F7013069F481E10E943B19F8
:10356000882301F5CE0160E072E00E94FF18009709
:10357000C1F418C082E10E943B19882399F4CE015E
:1035800060E072E00E94FF18009721F0C050DE4F0B
:103590000150A9F78CE040E050E0BA010E943B19CD
:1035A00001C000E00E94D41881E0002319F480E0FB
:1035B00001C083E0DF91CF910F910895CF92DF9208
:1035C000EF92FF920F93CF93DF93EB0169017A01A2
:1035D000882319F48091390201C081E080FD4AC03E
:1035E0008091D30490E083FD07C029E0CC0CDD1C62
:1035F000EE1CFF1C2A95D1F7013071F488E1B70168
:10360000A6010E943B19882371F5CE016EEF0E943E
:103610009B19009729F527C086709070009739F0A4
:10362000402F50E060E070E087E90E943B1989E19B
:10363000B701A6010E943B198823A9F4CE016CEFC3
:103640000E949B19009721F0C050DE4F0150B1F746
:1036500080E090E06DEF0E949B19009719F003C085
:1036600000E001C001E00E94D41881E0002319F4B9
:1036700080E001C083E0DF91CF910F91FF90EF9048
:10368000DF90CF9008950F931F93CF93DF93CDB723
:10369000DEB761970FB6F894DEBF0FBECDBF8A01CB
:1036A000882319F48091390201C081E080FD8FC028
:1036B000613061F0613020F0633009F080C07AC081
:1036C0000E94E418009709F07CC08DC089E040E0BA
:1036D00050E0BA010E943B19882309F084C0CE0152
:1036E000019660E170E00E94FF18009709F47BC02A
:1036F000298130E0F6E035952795FA95E1F7888540
:1037000090E02130310501F5A0E0B0E08F739070BA
:10371000A070B070DC01992788270196A11DB11D0A
:10372000398520E04A85240F311DA90160E070E051
:10373000840F951FA61FB71FEAE0880F991FAA1FC5
:10374000BB1FEA95D1F730C0880F991F880F991FCA
:103750000196298530E046E0359527954A95E1F7B1
:10376000820F931F2F8130E023703070322F222779
:10377000330F330F820F931FA0E0B0E02E812F7024
:103780003B85331F3327331F230F2E5F3A8533705A
:10379000330F230F30E02950304004C0880F991FA9
:1037A000AA1FBB1F2A95D2F7F80180839183A283B9
:1037B000B38307C080E890E0A0E0B0E0F5CF84E0FC
:1037C00001C080E0898B0E94D418898901C083E000
:1037D00061960FB6F894DEBF0FBECDBFDF91CF91DB
:1037E0001F910F91089581E0EDCFFF920F931F93EA
:1037F000CF93DF93EC01F22E798368835B834A8356
:10380000FB01EE0FFF1FE60FF71FEE0FFF1FEE0F7E
:10381000FF1FE65AFD4FA281B381FB0114E0EE0FBA
:10382000FF1F1A95E1F7E65CFD4F01E010E09801FB
:10383000008402C0220F331F0A94E2F7C8010680F9
:1038400002C0880F991F0A94E2F7822B8C9388811B
:103850009981FC01EE0FFF1FE80FF91FEE0FFF1F0C
:10386000EE0FFF1FE65AFD4FA481B581FC0124E055
:10387000EE0FFF1F2A95E1F7E65CFD4F98010484E7
:1038800002C0220F331F0A94E2F7C801028402C06B
:10389000880F991F0A94E2F7822B8C93CA019C012E
:1038A000442737FD4095542F60E472E48FE090E0A8
:1038B0000E946A23215030403D832C838881998166
:1038C000FC01EE0FFF1FE80FF91FEE0FFF1FEE0FB9
:1038D000FF1FE65AFD4F0084F185E02D308388817B
:1038E0009981FC01EE0FFF1FE80FF91FEE0FFF1F7C
:1038F000EE0FFF1FE65AFD4F0284F385E02D8C8109
:103900008083FF2011F188819981FC01EE0FFF1F58
:10391000E80FF91FEE0FFF1FEE0FFF1FE65AFD4FD6
:103920000280F381E02D2081DC0144E0AA0FBB1F5F
:103930004A95E1F7A65CBD4F0C9002C0000F111F25
:103940000A94E2F7202B20837894DF91CF911F9186
:103950000F91FF900895DC018D919C91AC01440F73
:10396000551FFA01E80FF91FEE0FFF1FEE0FFF1FA3
:10397000E65AFD4FA081B181FC0134E0EE0FFF1F3C
:103980003A95E1F7E65CFD4F72812C9130E0072E0D
:1039900002C0359527950A94E2F720FFF6CF840FF1
:1039A000951F880F991F880F991F865A9D4FDC011C
:1039B0001696ED91FC91179760830895CF92DF9250
:1039C000EF92FF920F931F93CF93DF936C01EA0165
:1039D0008FEF4F3F580739F4EB0109900020E9F7CA
:1039E0002197C61BD70B7B0100E010E008C0F70150
:1039F00061917F01C6010E94AB1C0F5F1F4F0C1726
:103A00001D07ACF3F60180819181FC01EE0FFF1FD1
:103A1000E80FF91FEE0FFF1FEE0FFF1FE65AFD4FD5
:103A2000A081B181FC0164E0EE0FFF1F6A95E1F710
:103A3000E65CFD4F26858C9190E0022E02C09595A4
:103A400087950A94E2F780FFF6CFDF91CF911F911F
:103A50000F91FF90EF90DF90CF900895CF93DF9379
:103A6000CDB7DEB7C050D2400FB6F894DEBF0FBE60
:103A7000CDBF9E01275F3D4FCE0101966FEF71E0F4
:103A8000C95FDD4F48815981C750D2400E94D5257A
:103A9000CB5FDD4F88819981C550D240BE016F5FF9
:103AA0007F4F4FEF5FEF0E94DE1CC050DE4F0FB61E
:103AB000F894DEBF0FBECDBFDF91CF910895DC013A
:103AC0008D919C91AC01440F551FFA01E80FF91F2D
:103AD000EE0FFF1FEE0FFF1FE65AFD4FA081B181D1
:103AE000FC0134E0EE0FFF1F3A95E1F7E65CFD4F75
:103AF00064812C9130E0062E02C0359527950A94FA
:103B0000E2F720FFF6CF840F951F880F991F880FCB
:103B1000991F865A9D4FDC011696ED91FC911797DF
:103B200080810895CF93DF93CDB7DEB7C351D140E5
:103B30000FB6F894DEBF0FBECDBF8FEF93ECA9E0B8
:103B400081509040A040E1F700C000008CEA94E072
:103B500060E070E040EB54E020E00E94F51B89EC4F
:103B600094E06AE370E04BE350E020E00E94FC0444
:103B700083EC94E06AE370E04BE350E021E00E94C4
:103B8000FC0400D00F92E2EB6E2EE4E07E2E85E383
:103B900090E0ADB7BEB712969C938E93119784E0D8
:103BA00013968C93C30165E370E040E025E330E0B9
:103BB00001E0F5E3EF2EF12C12E0C12EE5E3AE2E8D
:103BC000B12CF3E08F2E0E94AC030F900F900F905A
:103BD00080E06AE772E00E94370E80E290E00E9487
:103BE0008C23809378029093790260E071E04AE040
:103BF0000E944D0E882309F04DC08091780290916B
:103C0000790269E071E04DE250E09E012D5F3F4F87
:103C10000E94C51280917802909179020E94091544
:103C20008B819C818D329105A9F589EC94E061E04E
:103C30000E940E05C30160E040E00E941802EDB74B
:103C4000FEB738970FB6F894FEBF0FBEEDBF3196A2
:103C5000ADB7BEB712967C926E92119787E391E052
:103C600093838283A0917802B09179021A968D9104
:103C70009D910D90BC91A02D84839583A683B783DD
:103C80000E943A03EDB7FEB738960FB6F894FEBF20
:103C90000FBEEDBF809178029091790260E071E0F3
:103CA00042E10E944D0E882309F055C080917802B0
:103CB00090917902DC011A964D915D916D917C9104
:103CC0001D970E941515882309F03FC08091780246
:103CD0009091790264E471E040E350E09E012D5F31
:103CE0003F4F0E94C5128B819C818033910569F5FD
:103CF000EDB7FEB738970FB6F894FEBF0FBEEDBF15
:103D0000319682EB94E0ADB7BEB712969C938E933A
:103D1000119785E791E093838283A0917802B09117
:103D200079021A968D919D910D90BC91A02D84835E
:103D30009583A683B7830E943A03EDB7FEB7389602
:103D40000FB6F894FEBF0FBEEDBF80917802909140
:103D500079020E9409158E01075F1F4F8CE0D80180
:103D60001D928A95E9F71D821E821F82188683E8BC
:103D700091E0B801AE014B5F5F4F0E94DA168823D5
:103D800049F5EDB7FEB73A970FB6F894FEBF0FBEF0
:103D9000EDBF319682EB94E0ADB7BEB712969C931F
:103DA0008E93119784E891E0938382831583048333
:103DB0008D819E81AF81B88586839783A087B187E7
:103DC0000E943A03EDB7FEB73A960FB6F894FEBFDD
:103DD0000FBEEDBF809178029091790260E071E0B2
:103DE00041E00E944D0E8823A1F58E010B5E1F4F0E
:103DF0008091780290917902B8014FEF50E09E01D6
:103E00002F5F3F4F0E943611809178029091790286
:103E10000E9409151F8E00D000D000D0EDB7FEB76C
:103E2000319682EB94E0ADB7BEB712969C938E9319
:103E300011978EE891E093838283158304830E9417
:103E40003A03EDB7FEB736960FB6F894FEBF0FBE35
:103E5000EDBF83EC94E061E00E940E0500E010E00D
:103E600022EB622E24E0722E36E9E32E31E0F32EAF
:103E70004AE0C42ED12C0F5F1F4F83EC94E00E94C8
:103E8000240582EB94E06DE040E00E94180200D02F
:103E900000D000D0EDB7FEB73196ADB7BEB71296E1
:103EA0007C926E921197F382E282C801B6010E9461
:103EB0005723958384830E943A038FEF93EDA0E309
:103EC00081509040A040E1F700C00000ADB7BEB700
:103ED00016960FB6F894BEBF0FBEADBFCCCF2F92D3
:103EE0003F924F925F926F927F928F929F92AF928A
:103EF000BF92CF92DF92EF92FF920F931F93CF93D7
:103F0000DF93CDB7DEB765970FB6F894DEBF0FBE6F
:103F1000CDBF4C017F876E87FC011782168283819B
:103F200081FD04C076C34C855D8504C01E010894E4
:103F3000211C311CF4019381EE85FF8593FD859151
:103F400093FF8191FF87EE87882309F45EC3853252
:103F500041F493FD859193FF8191FF87EE87853230
:103F600059F490E0B4014C8B5D8B0E94A9254C89DB
:103F70005D895D874C87D7CFFF24DD2410E01032A8
:103F8000B0F48B3269F08C3228F4803251F08332F5
:103F900071F40BC08D3239F0803349F411602CC0BC
:103FA0001260146029C0186027C0106125C017FD79
:103FB0002EC0282F20532A3098F416FF08C08F2DCA
:103FC000880FF82EFF0CFF0CF80EF20E15C08D2D89
:103FD000880FD82EDD0CDD0CD80ED20E10620CC06E
:103FE0008E3221F416FD11C3106406C08C3611F414
:103FF000106802C0883659F4EE85FF8593FD8591DF
:1040000093FF8191FF87EE87882309F0B8CF982F1F
:104010009554933018F41061805E06C0982F955621
:10402000933008F0A2C11F7E16FD02C0E6E0FE2E0E
:104030001F73853611F4106406C0863611F41068BB
:1040400002C0F110FA9417FF07C0FBE3FF1548F018
:10405000EF2CE39427E00DC027E02F1530F02F2D33
:1040600007C027E07CE3E72E04C027E067E0F62ED8
:10407000EE24CA0104969D878C87FA0160817181C4
:1040800082819381A1010E2D0E94BB245C01C98015
:104090002C2D30E0398B288BC0FE03C0388933FFCC
:1040A00006C011FD06C012FF06C000E205C00DE209
:1040B00003C00BE201C000E0888999898C70907080
:1040C000009709F43CC0002311F084E001C083E0B4
:1040D0008D1558F4D81A13FD09C080E290E0B401A0
:1040E0000E94A925DA94C9F701C0DD24002329F034
:1040F000802F90E0B4010E94A925888983FD05C026
:1041000030ECE32E32E0F32E11C02CEBE22E22E055
:10411000F22E0CC00115110509F0805290E0B40197
:104120000E94A9250894E11CF11C04C0012F10E095
:1041300000711070F7018491882361F763C217FF43
:104140000EC0EA0CF889F4FF04C08A81813309F4B7
:10415000EA941E144CF528E02E1548F12CC016FDEB
:104160002AC08F2D90E08A159B0544F03CEFA316E2
:104170003FEFB3061CF0106801C0FA94FF2049F02D
:10418000E2E0F0E0EC0FFD1FEF0DF11D80818033C8
:10419000A1F317FF10C0EF2CE3948F2D90E0A81629
:1041A000B90644F4FA1807C0EE24E39404C098E07A
:1041B000E92E01C0FF2417FF07C01A141B043CF4AA
:1041C00095012F5F3F4F05C025E030E002C021E0A0
:1041D00030E0002311F02F5F3F4FFF2029F08F2D9B
:1041E00090E00196280F391F8D2D90E02817390790
:1041F00014F4D21A01C0DD24612E7724C301897022
:104200009070009749F406C080E290E0B4010E94EB
:10421000A925DA94DD20C1F7002329F0802F90E052
:10422000B4010E94A92563FC09C006C080E390E0A8
:10423000B4010E94A925DA94DD20C1F717FF48C018
:104240008501B7FE02C000E010E0662477249501E6
:104250002E1931093B8B2A8B2501401A510A420C39
:10426000531C6F2D70E0EE24FF24E61AF70A3FEF8F
:104270000F3F130729F48EE290E0B4010E94A925B4
:10428000A016B10654F02A893B89201731072CF477
:10429000F201E60DF71D818101C080E3015010405D
:1042A0000894611C711C0E151F052CF090E0B401E0
:1042B0000E94A925DCCF0A151B0541F49A8196338B
:1042C00020F4953319F4388934FF81E390E049C034
:1042D0008A81813311F09FEEC92290E0B4010E94DF
:1042E000A925FF2089F08EE290E0B4010E94A92563
:1042F00012E0F101E10FF11D1F5F808190E0B40138
:104300000E94A925FA94A9F764FE03C085E490E011
:1043100002C085E690E0B4010E94A925B7FC05C063
:10432000A114B10441F4C4FE06C0B094A194B10834
:10433000B3948DE201C08BE290E0B4010E94A92504
:1043400080E305C08F5FE6EFFFEFAE0EBF1EFAE021
:10435000AF16B104BCF790E0B4010E94A925C501D5
:10436000C096B4010E94A9254DC1833631F0833730
:1043700089F0833509F059C022C09A012E5F3F4F62
:104380003D872C87FA018081898381E0E82EF12C1A
:10439000510113C09A012E5F3F4F3D872C87FA01D0
:1043A000A080B18016FF03C06F2D70E002C06FEFD8
:1043B0007FEFC5010E949E257C011F7714C09A01E2
:1043C0002E5F3F4F3D872C87FA01A080B18016FFFA
:1043D00003C06F2D70E002C06FEF7FEFC5010E9438
:1043E00093257C01106813FD1CC006C080E290E09C
:1043F000B4010E94A925DA948D2D90E0E816F90603
:10440000A8F30FC0F50117FD859117FF81915F019A
:1044100090E0B4010E94A925D110DA940894E10833
:10442000F108E114F10471F7EDC0843611F089361A
:1044300071F59A0117FF0AC02C5F3F4F3D872C870B
:10444000FA0180819181A281B3810BC02E5F3F4F21
:104450003D872C87FA0180819181AA2797FDA0953D
:10446000BA2F012F0F76B7FF08C0B095A095909591
:1044700081959F4FAF4FBF4F0068BC01CD01A10197
:104480002AE030E00E940D26E82EE21841C0853770
:1044900021F41F7E2AE030E020C0197F8F36A9F07A
:1044A000803720F4883509F0B0C00BC0803721F088
:1044B000883709F0AAC001C0106114FF09C0146058
:1044C00007C014FF08C0166006C028E030E005C031
:1044D00020E130E002C020E132E0CA0117FF09C04C
:1044E00004969D878C87FA01608171818281938116
:1044F00008C002969D878C87FA016081718180E0F7
:1045000090E0A1010E940D26E82EE218012F0F77FE
:1045100006FF09C00E7FEF1430F404FF06C002FD51
:1045200004C00F7E02C01E2D01C01F2D802F90E001
:1045300004FF0CC0FE01EE0DF11D2081203311F4AB
:10454000097E09C002FF06C01E5F05C08678907014
:10455000009709F01F5FA02EBB2403FD12C000FFCF
:104560000DC0FE2C1D1550F4FD0CF11A1D2D06C0BA
:1045700080E290E0B4010E94A9251F5F1D15C0F3E1
:1045800004C01D1510F4D11A01C0DD24A4FE0FC013
:1045900080E390E0B4010E94A925A2FE1FC0A1FE05
:1045A00003C088E590E010C088E790E00DC0C50129
:1045B00086789070009791F0A1FC02C080E201C063
:1045C0008BE207FD8DE290E0B4010E94A92506C0B0
:1045D00080E390E0B4010E94A925FA94EF14C0F39F
:1045E000EA94F101EE0DF11D808190E0B4010E948A
:1045F000A925EE20A9F706C080E290E0B4010E9450
:10460000A925DA94DD20C1F78ECCF401868197814B
:1046100002C08FEF9FEF65960FB6F894DEBF0FBE16
:10462000CDBFDF91CF911F910F91FF90EF90DF9061
:10463000CF90BF90AF909F908F907F906F905F9042
:104640004F903F902F900895629FD001739FF0018B
:10465000829FE00DF11D649FE00DF11D929FF00D12
:10466000839FF00D749FF00D659FF00D9927729F49
:10467000B00DE11DF91F639FB00DE11DF91FBD01D4
:10468000CF0111240895AA1BBB1B51E107C0AA1F2B
:10469000BB1FA617B70710F0A61BB70B881F991FE3
:1046A0005A95A9F780959095BC01CD01089597FB87
:1046B000092E07260AD077FD04D0E5DF06D00020BA
:1046C0001AF4709561957F4F0895F6F7909581954E
:1046D0009F4F0895A1E21A2EAA1BBB1BFD010DC01E
:1046E000AA1FBB1FEE1FFF1FA217B307E407F507A2
:1046F00020F0A21BB30BE40BF50B661F771F881F7E
:10470000991F1A9469F760957095809590959B0113
:10471000AC01BD01CF010895CF93DF93AC0182308E
:10472000910510F442E050E0E091D604F091D704F6
:1047300020E030E0A0E0B0E024C0808191818417C7
:104740009507D0F08417950771F4828193811097B3
:1047500029F013969C938E9312972CC09093D704B4
:104760008093D60427C02115310519F082179307CD
:1047700018F49C01BD01EF0192818381DF01E92FD3
:10478000F82F3097D1F621153105F9F0C901841BB6
:10479000950B8430910580F48A819B8161157105A8
:1047A00021F0FB019383828304C09093D70480930C
:1047B000D604FE01329642C0FE01E80FF91F419374
:1047C000519302979983888339C08091D404909142
:1047D000D504009741F480917402909175029093F2
:1047E000D5048093D4042091720230917302211574
:1047F000310541F42DB73EB7809176029091770252
:10480000281B390BE091D404F091D504E217F3078B
:1048100098F42E1B3F0B2417350770F0CA0102963F
:104820002817390748F08E0F9F1F9093D504809367
:10483000D4044193519302C0E0E0F0E0CF01DF9156
:10484000CF9108950F931F93CF93DF939C0100970F
:1048500009F48CC0DC01129713961C921E921297D9
:104860006091D6047091D7046115710589F48D911A
:104870009C911197820F931F2091D4043091D504FD
:104880002817390769F5B093D504A093D4046EC0F6
:10489000FB0140E050E001C0FC01EA17FB0730F4E7
:1048A00082819381AF010097B9F71FC0E901229778
:1048B000FB83EA8308811981C901800F911F8E173C
:1048C0009F0759F480819181800F911F02969983EF
:1048D0008883828193819B838A834115510529F4C2
:1048E000B093D704A093D60441C0FA01B383A28346
:1048F000C191D191EC0FFD1FAE17BF0781F4F901F3
:10490000929182918C0F9D1F0296DA0111969C93D1
:104910008E938281938113969C938E931297E0E0FD
:10492000F0E002C0FB01BC01DB0112968D919C916D
:1049300013970097B9F7CB0102962D913C911197EF
:10494000820F931F2091D4043091D5042817390782
:1049500069F4309729F41092D7041092D60402C05B
:10496000138212827093D5046093D404DF91CF91A7
:104970001F910F910895283008F027E03327DA01BE
:10498000990F311D87FD916000966105710539F41D
:1049900032602E5F3D9330E32A95E1F708959F3F03
:1049A00030F080387105610509F03C5F3C5F3D9354
:1049B000913008F08068911DDF93CF931F930F9380
:1049C000FF92EF92192F987F9695E92F96959695DD
:1049D000E90FFF27E25EFC4F99273327EE24FF24DF
:1049E000A701E70105900894079428F4360FE71E05
:1049F000F81E491F511D660F771F881F991F0694C7
:104A0000A1F70590079428F4E70EF81E491F561FDA
:104A1000C11D770F881F991F661F0694A1F7059087
:104A2000079428F4F80E491F561FC71FD11D880F81
:104A3000991F661F771F0694A1F70590079420F42D
:104A4000490F561FC71FD81F990F661F771F881F52
:104A50000694A9F784911095177041F0D695C795E3
:104A600057954795F794E7941A95C1F7E4ECF2E06F
:104A700068941590159135916591959105907FE217
:104A80007395E118F10A430B560BC90BD009C0F717
:104A9000E10CF11E431F561FC91FD01D7EF4703359
:104AA00011F48A95E6CFE894015030F0080F0AF42B
:104AB0000027021708F4202F2395022F7A3328F0BD
:104AC00079E37D932A95E9F710C07D932A9589F6BD
:104AD000069497956795379517951794E118F10AFD
:104AE000430B560BC90BD00998F023957E91739513
:104AF0007A3308F070E37C932013B8F77E917061ED
:104B00007D9330F0839571E37D9370E32A95E1F70F
:104B10001124EF90FF900F911F91CF91DF91992772
:104B200087FD90950895FC0105906150704001103B
:104B3000D8F7809590958E0F9F1F0895FC016150C6
:104B4000704001900110D8F7809590958E0F9F1FAF
:104B500008950F931F93CF93DF938C01EB018B810B
:104B600081FF1BC082FF0DC02E813F818C819D8102
:104B70002817390764F4E881F9810193F983E88300
:104B800006C0E885F985802F0995009731F48E815C
:104B90009F8101969F838E8302C00FEF1FEFC80194
:104BA000DF91CF911F910F9108950F931F93CF9392
:104BB000DF93CDB7DEB72E970FB6F894DEBF0FBEEA
:104BC000CDBF8C0186E08C831A83098377FF02C0F6
:104BD00060E070E8615070407E836D83CE01019685
:104BE000BA01A9010E946F1F4D815E8157FD0AC065
:104BF0002F813885421753070CF49A01020F131FB7
:104C0000F80110822E960FB6F894DEBF0FBECDBF0E
:104C1000DF91CF911F910F910895FA01AA272830B3
:104C200051F1203181F1E8946F936E7F6E5F7F4F79
:104C30008F4F9F4FAF4FB1E03ED0B4E03CD0670FF5
:104C4000781F891F9A1FA11D680F791F8A1F911D48
:104C5000A11D6A0F711D811D911DA11D20D009F498
:104C600068943F912AE0269F11243019305D3193DA
:104C7000DEF6CF010895462F4770405D4193B3E0C3
:104C80000FD0C9F7F6CF462F4F70405D4A3318F06A
:104C9000495D31FD4052419302D0A9F7EACFB4E01B
:104CA000A6959795879577956795BA95C9F70097D3
:104CB0006105710508959B01AC010A2E0694579574
:104CC000479537952795BA95C9F7620F731F841FCB
:0A4CD000951FA01D0895F894FFCF72
:104CDA0066696C652E7478740048656C6C6F205731
:104CEA006F726C642120534443617264207375703F
:104CFA00706F727420757020616E642072756E6EAA
:104D0A00696E67210D0A00437265617465643A250C
:104D1A0064420A00546869732069732061206E65D1
:104D2A0077206C696E652C20617070656E646564AD
:104D3A0020746F206578697374696E672066696C80
:104D4A0065210D0A00417070656E6465643A2564D8
:104D5A00420A0000257320534E3A25580A0052652C
:104D6A0061643A25730025642000222A2B2C3A3BE1
:104D7A003C3D3E3F5B5D7C7F00222A2B2C2E3A3B3A
:104D8A003C3D3E3F5B5D7C7F00809A90418E418F27
:104D9A00804545454949498E8F9092924F994F5582
:104DAA005559999A9B9C9D9E9F41494F55A5A5A6E9
:104DBA00A7A8A9AAABAC21AEAFB0B1B2B3B4B5B68D
:104DCA00B7B8B9BABBBCBDBEBFC0C1C2C3C4C5C6F1
:104DDA00C7C8C9CACBCCCDCECFD0D1D2D3D4D5D6E1
:104DEA00D7D8D9DADBDCDDDEDFE0E1E2E3E4E5E6D1
:104DFA00E7E8E9EAEBECEDEEEFF0F1F2F3F4F5F6C1
:104E0A00F7F8F9FAFBFCFDFEFF01070005000700B1
:104E1A000400030001000200060007000500070065
:104E2A00040003000100020006002B002A0095007E
:104E3A002C00900029009B009A009D009C0098007D
:084E4A0099000000D8042000CB
:00000001FF
